:020000040800F2
:10000000C8B10020810200089B290008612800086F
:1000100099290008EF090008653800080000000071
:10002000000000000000000000000000A101000826
:100030009F0A000800000000FD010008192D0008BB
:100040009B0200089B0200089B0200089B0200081C
:100050009B0200089B0200089B0200089B0200080C
:100060009B0200089B0200089B0200089B020008FC
:100070009B0200089B020008590A0008650A000854
:100080009B0200089B0200089B0200089B020008DC
:100090009B0200089B0200089B0200089B020008CC
:1000A0009B020008C52D00089B0200089B02000867
:1000B0009B02000800000000000000009B020008F6
:1000C0009B0200089B0200089B0200089B0200089C
:1000D0009B020008593800089B0200089B02000898
:1000E0009B0200089B0200080000000000000000C6
:1000F0000000000000000000000000000000000000
:10010000000000009B020008000000009B020008A5
:1001100000000000000000009B0200089B02000895
:100120009B0200089B0200089B0200089B0200083B
:100130009B0200080000000000000000000000001A
:100140009B0200089B0200089B02000800000000C0
:100150009B0200089B0200089B0200089B0200080B
:100160009B0200089B0200089B02000800000000A0
:100170009B0200089B020008000000000000000035
:100180009B0200089B0200089B020008DFF80CD0CD
:1001900000F04AFB00480047695E0008C8B1002033
:1001A0002C4B1968086800F05AB880F30988BFF32F
:1001B0006F8F4FF0000080F311887047000000003F
:1001C00008480068006880F308884FF0000080F35A
:1001D000148862B661B6BFF34F8FBFF36F8F00DF35
:1001E00000BF00BF08ED00E0DFF80C00016841F43B
:1001F00070010160704700BF88ED00E0EFF30980F7
:10020000BFF36F8F134B1A681EF0100F08BF20ED5D
:10021000108A20E9F04F106009B44FF0500080F3CD
:100220001188BFF34F8FBFF36F8F06F02DFF4FF094
:10023000000080F3118809BC1968086800F014B840
:100240001EF0100F08BF00F014B880F30988BFF348
:100250006F8F7047C0010020EFF30580704730C8F2
:10026000B0E8C04FFFF7A1BF30C8B0E8C04FFFF7FC
:10027000E7BFB0EC088AB0EC08CAFFF7E6BF0000A1
:100280000648804706480047FEE7FEE7FEE7FEE730
:10029000FEE7FEE7FEE7FEE7FEE7FEE7812D00084A
:1002A0008D0100082DE9F05F0546002092469B462F
:1002B00088460646814640241BE02846414647467C
:1002C000224600F0B3F853465A46C01A914110D363
:1002D00011461846224600F09AF82D1A67EB0108DD
:1002E0004F4622460120002100F091F817EB00094B
:1002F0004E41201EA4F10104DFDC484631462A4667
:10030000434600F000B830BCBDE8C09F00487047CD
:10031000CC81000840EA01039B0703D009E008C92B
:10032000121F08C0042AFAD203E011F8013B00F8BA
:10033000013B521EF9D27047D2B201E000F8012B06
:10034000491EFBD270470022F6E710B513460A4655
:1003500004461946FFF7F0FF204610BD10B50446CD
:1003600004E00B7800F8013B03B1491C521EF8D29F
:10037000204610BD421C10F8011B0029FBD1801A39
:10038000704730B505460020034600E05B1C9342F1
:1003900005D2EC5CC85C201A01D1002CF6D130BD2E
:1003A00010B54843044603F069FE002805D000213B
:1003B000002C02D0641E0155FAE710BD00F0004287
:1003C00030F000400AD0C10D01F56071C0F3160095
:1003D00042EA0151C208400711437047002001461C
:1003E000704730B50B46014600202022012409E069
:1003F00021FA02F59D4205D303FA02F5491B04FADE
:1004000002F52844151EA2F10102F1DC30BD202ABC
:1004100004DB203A00FA02F1002070479140C2F15B
:10042000200320FA03F3194390407047202A04DB8D
:10043000203A21FA02F00021704721FA02F3D0405D
:10044000C2F120029140084319467047F0B400F011
:10045000004221F0004120F00040CE0DC30DC1F359
:10046000160141F40001C0F316004C42154640F459
:100470000000761E09E010EB440002D582F0004235
:1004800040428842F7D840005B1EB342F9DA18B107
:10049000F0BC002100F0F5B92846F0BC70472DE90A
:1004A000FE4F804681EA0300C00F0C46009021F009
:1004B000004123F00045B8EB0200A94105D24046B7
:1004C000214690461C460B46024623F0004010434E
:1004D00047D0270DC7F30A00C3F30A510290401A10
:1004E000019040286BDAC3F3130040F4801B00989E
:1004F000924620B10023D2EB030A63EB0B0B019869
:100500005946C0F140025046FFF781FF06460D46AE
:1005100050465946019A00F099F910EB08006141E4
:10052000002487EA115284EAE7731A4340D0009A04
:1005300062B3019A012A4FEA075215DC001B61EBF6
:1005400002014FF0004202EA0752CDE90042001CCE
:1005500041F5801132462B4600F0D0F903B000F08F
:1005600045B840462146F9E7001B61EB0201001C3B
:1005700041F5801300185B412018A2F5001747EBE6
:10058000030140EAD570B6196D4111E06D084FEADC
:10059000360645EAC0754FEA0752001B61EB0201BF
:1005A000001C41F5801149084FEA30000019514103
:1005B00032462B4603B000F01CB800F090B900980A
:1005C000012240000023D0EB020263EBE0730098AD
:1005D00021464FEAE074B8EB000061EB0401E9E763
:1005E00083F000435BE781F0004158E730BCBDE891
:1005F000C08F30BCBDE8C04FFFF7DFBF2DE9FE4F15
:1006000081EA030404F0004421F0004100944FF01B
:10061000000B23F0004350EA01045ED052EA0304C9
:100620005BD0C3F30A54C1F30A552C44A4F2F3344B
:100630000194A0FB0254C1F3130141F48011C3F3F0
:10064000130343F4801301FB024400FB034E840AAE
:10065000970A44EA815447EA8357A4FB0768029546
:100660008D0A05FB07854FEA932C04FB0C542705E4
:10067000029D4FEA065847EA1637B5EB08056EEBC0
:10068000070C870E920E47EA811742EA8312A7FBF6
:100690000201B6EB0B0164EB00042B0D43EA0C33B3
:1006A0005E1844EB1C50DA465146E7FB0201C5F3E5
:1006B00013044FEA0B3343EA14534FEA0432019C0C
:1006C00043EA0603A4F10C040294009CCDE900B4B3
:1006D00000F014F903B000F003B800200146F9E778
:1006E00030BCBDE8C08F2DE9F04D81EA030404F071
:1006F000004B21F0004514464FF0000A23F0004162
:1007000050EA050220D054EA01021DD0C5F30A5771
:100710000246C5F31303C1F31300C1F30A5640F4B4
:10072000801543F48013A7EB0608101BD64608F289
:10073000FD3873EB050002D308F1010801E09218BF
:100740005B41B8F1000F03DA00200146BDE8F08DEF
:1007500000204FF48011064684460EE0171B73EB11
:10076000050705D3121B63EB050306434CEA010C96
:1007700049084FEA300092185B4150EA0107EDD179
:1007800052EA030012D082EA040083EA050108431A
:1007900005D0101BAB4106D20122002306E0002247
:1007A0004FF0004302E06FF0010253101AEB060015
:1007B0004CEB085110EB0A0041EB0B01BDE8F04D8A
:1007C00000F08DB8C1F30A52C1F3130140F2FF33B8
:1007D00041F480119A4202DA00200146704740F24B
:1007E00033439A42A2F2334202DC5242FFF71EBE6A
:1007F000FFF70DBE30B5041E71F1000404DB4FF0AD
:100800000044404264EB0101141E73F1000405DB57
:100810001C464FF00043524263EB0403994208BF69
:10082000904230BD00207047064C074D06E0E0685E
:1008300040F0010394E8070098471034AC42F6D327
:10084000FFF7A8FC5083000870830008202A06DB0D
:10085000CB17203A41FA02F043EAE07306E041FA8E
:1008600002F3D040C2F1200291400843194670477C
:100870000029A8BF7047401C490008BF20F00100B4
:10088000704710B4B0FA80FC00FA0CF050EA010492
:1008900004BF10BC704749B1CCF1200421FA04F424
:1008A00011FA0CF118BF012121430843A3EB0C01FD
:1008B000CB1D4FEA00614FEA102042BF002010BC60
:1008C000704700EBC35010440029A4BF10BC704710
:1008D000401C490008BF20F0010010BC704710B553
:1008E000141E73F1000408DA401C41F10001921853
:1008F0005B411A4301D120F0010010BD2DE9F04DFC
:1009000092469B4611B1B1FA81F202E0B0FA80F250
:1009100020329046FFF77BFD04460F4640EA0A006E
:1009200041EA0B0153465A46084313D0114653EA95
:10093000010019D0C8F140025046FFF777FD054687
:100940000E46504659464246FFF761FD084305D022
:10095000012004E020463946BDE8F08D0020054323
:1009600046EAE0762C4337430A986305E40AA0EB95
:1009700008000022FD0A44EA47540A3002D500204C
:100980000146E9E7010510196941DDE9084500194B
:100990006941BDE8F04DA2E770B58C1810F8015B15
:1009A00015F0070301D110F8013B2A1106D110F808
:1009B000012B03E010F8016B01F8016B5B1EF9D10C
:1009C0002B0705D40023521E0DD401F8013BFAE792
:1009D00010F8013BCB1A921C03E013F8015B01F8FD
:1009E000015B521EF9D5A142D8D3002070BDFEE7AD
:1009F00010B54FF0904400220421204600F03CFB4B
:100A000000221021204600F037FB20460022BDE8DE
:100A10001040202100F030BB10B54FF09044002270
:100A20000421204600F028FB00221021204600F07F
:100A300023FB01222021204600F01EFB002010BDD8
:100A400001B54FF47A7301226946024801F01AFA9F
:100A500008BD000060020020014800F034B9000029
:100A600060040020014800F02EB9000018040020A6
:100A700030B590F8444004F01C050124AC40056CEE
:100A80006C60046863608368102B036803D099600E
:100A90000068C26030BD9A600068C16030BD7047B8
:100AA0002DE9F04781468A4613264FF0980810201A
:100AB00000F08CF80024002504FB06F709EB050084
:100AC000385C00F09BF86D1CADB2B542F6D3641CE7
:100AD000A4B24445EFD3132000F078F80024002599
:100AE00004FB06F70AEB0500385C00F087F86D1C84
:100AF000ADB2B542F6D3641CA4B24445EFD3122084
:100B000000F064F8BDE8F04700F049B810B54FF0C8
:100B1000904401222021204600F0AEFA642005F026
:100B2000A9FA00222021204600F0A6FA022005F0B2
:100B3000A1FA01222021204600F09EFA642005F04F
:100B400099FA062000F042F8172000F057F8172015
:100B500000F054F8172000F051F8042000F036F8A7
:100B600000F01DF8002000F031F80F2000F046F8EA
:100B70000D2000F043F8612000F028F8982000F0E4
:100B80003DF8002000F03AF8982000F037F85020A7
:100B900000F01CF8BDE81040772000F02FB870B5C9
:100BA0004FF09045712000F011F80821284600F020
:100BB0005EFA40F300040A20641C05F05BFA002C86
:100BC000F0D1BDE87040C82005F054BA70B50546B4
:100BD0004FF0904400220421204600F04DFA0022FC
:100BE0001021204600F048FA2846FFF729FF20464A
:100BF000BDE870400122102100F03EBA70B50546F4
:100C00004FF0904401220421204600F035FA0022E2
:100C10001021204600F030FA2846FFF711FF204649
:100C2000BDE870400122102100F026BA704710B5CF
:100C300090F825100022022905D00421C16380F814
:100C40002420012010BD01680B6823F00E030B6007
:100C500001680B6823F001030B6090F84410046CEA
:100C600001F01C03012101FA03F3636080F82510F1
:100C700080F82420104610BD10B590F825100024EF
:100C8000022903D00421C16301241AE001680A6823
:100C900022F00E020A6001680A6822F001020A606E
:100CA00090F84410036C01F01C02012101FA02F2D9
:100CB0005A6080F82510002180F82410816B01B162
:100CC0008847204610BDF0B4016C0C6801680D68BF
:100CD00090F8442002F01C06042202FA06F3234294
:100CE00011D06B070FD50B689B0603D40B6823F05C
:100CF00004030B6090F8441001F01C018A40016C61
:100D00004A60016B1DE0022303FA06F727424FF009
:100D1000000C4FF0010218D0AF0716D50C68A406DE
:100D200005D40C6824F00A040C6080F8252090F8A3
:100D3000441001F01C018B40016C4B6080F824C012
:100D4000C16A00291AD0F0BC08470823B3402342E7
:100D500014D02B0712D50B6823F00E030B6090F80C
:100D60004410036C01F01C0102FA01F15960C263E6
:100D700080F8252080F824C0416BE2E7F0BC704782
:100D800070B568B12B4C036814212B4AA34209D2D9
:100D90002A4C1C44B4FBF1F18900C0E910210BE09E
:100DA000012070BD234C64421C44B4FBF1F1890066
:100DB0004164204908390164022180F825101C682B
:100DC00047F6F0718C43D0E902152943D0E9045667
:100DD0003543294385692943C5692943056A294360
:100DE000214319608168B1F5804F19D0036C0F2140
:100DF000934202D152F8A83F02E00E4AA032136893
:100E000090F8444004F01C04A1408B43136090F818
:100E10004430416803F01C03994013681943116082
:100E20000021C163012280F8252080F824100846A3
:100E300070BD00000804024000000240F8FFFDBF42
:100E400070B5044690F82400002501280CD001203C
:100E500084F8240094F825600020012E06D084F840
:100E600024000225284670BD022070BD022684F8A9
:100E70002560E0632068066826F0010606602046CB
:100E8000FFF7F6FD206B00282068016802D041F0D2
:100E90000E0106E021F0040101602068016841F0C4
:100EA0000A0101602068016841F001010160D9E791
:100EB0002DE9FC4FDFF894A1002301250AF1040B72
:100EC00003244FF00F0C0BF1040EB8E005FA03F603
:100ED00032406FD04F68012F05D0022F03D0112F61
:100EE00001D0122F17D1D0F808905F0004FA07F84C
:100EF00029EA08090097D1F80C8008FA07F848EAAF
:100F00000908C0F808804768B7430E79C6F3001691
:100F10009E403E434660C6684FEA430804FA08F71D
:100F2000BE4301978F6807FA08F73743C7604E68DA
:100F3000022E01D0122E13D1DE0800EB8606009699
:100F4000366A5F07FF0E0CFA07F926EA0906D1F8A0
:100F5000109009FA07F949EA0609009EC6F82090A0
:100F60000668019FBE430F7907F0030707FA08F7E9
:100F7000374307604E68F60060D5354E376E47F050
:100F800001073766366E23F0030706F00106009668
:100F9000304E3E44B146B6689F074FEA17780CFAC8
:100FA00008F7BE43B0F1904F05D02B4FB84204D1A3
:100FB000012712E042E000270FE0284FB84201D19C
:100FC00002270AE0264FB84201D1032705E0254F4A
:100FD000B84201D1042700E0072707FA08F7374392
:100FE000C9F80870DAF800605746D1F804809643D3
:100FF0005FEAC83800D516433E60DBF800605F4604
:10100000D1F8048096435FEA883800D516433E60E5
:10101000DEF800607746D1F8048096435FEAC8287E
:1010200000D516433E60094F0C373E68D1F8048066
:1010300096435FEA882800D516433E605B1C0A6829
:1010400032FA03F67FF442AF00F00EB8000401401C
:101050000010024000000140000400480008004861
:10106000000C0048001000481CBCBDE8E08F00697F
:10107000084000D0012070470AB181617047816249
:10108000704700000148806870470000B0010020F0
:1010900070B5040011D021684CF6CC40086021687E
:1010A00045F255500860D4E9000141602168A0680C
:1010B0008860FFF7E7FF054609E0012070BD00BF2B
:1010C000FFF7E0FF401B302801D9032070BD2068E6
:1010D000C0680028F4D120680269E1688A4201D022
:1010E000016102E04AF6AA210160002070BD00689B
:1010F0004AF6AA210160002070470000024881687A
:101100000278114481607047B001002010B50024BE
:10111000032000F08DF8002000F008F808B1012449
:1011200001E000F03DF8204610BD000000B501468A
:1011300087B00022192000F05BF8192000F04AF86F
:101140001348016E41F400310166006E05A900F4F8
:1011500000300690684600F0A7FA00F0D7FA0D4973
:101160000D4AB0FBF1F10D48491E0260416040F2AA
:10117000E7320021C0E90321816000F083FF10B154
:10118000012007B000BD054800F0C2FFF9E70000EC
:101190000010024040420F0000440140A80400201B
:1011A0000B4882B0016E41F001010166016E01F051
:1011B00001010091816D41F080518165806D0022B7
:1011C00000F0805000900F21901E02B000F010B887
:1011D00000100240002809DB00F01F0201219140AD
:1011E0004009800000F1E020C0F8001170470000C5
:1011F000F0B40E4B1B680C46C3F30223C3F1070582
:10120000042D00D90425191D072901D2002300E06F
:10121000DB1E012606FA05F1491E214099409E4039
:10122000761E16403143F0BC02F05FBB0CED00E0CF
:10123000064900F0070208684FF6FF03184040EA2D
:101240000220034A10430860704700000CED00E0E4
:101250000000FA051649B0F5007F0868C0F3412088
:1012600009D0022805D0086820F4C06040F48060EE
:101270000860002070470128FBD0086820F4C06097
:1012800040F4007008600B483222006850430A4A5C
:10129000B0FBF2F0401C00E0401E4A69520501D547
:1012A0000028F9D148694005E3D5032070470000C4
:1012B00000700040BC01002040420F00024800685E
:1012C00000F4C06070470000007000402DE9F84F46
:1012D000044600270088A84D3E46000515D5606CE1
:1012E00060B1B0F5000F04D0B0F5400F2BD001274E
:1012F0000AE0E86840F48030E86024E00021201D26
:1013000001F04CFB07001ED03E46206880033AD512
:10131000A86D4FF00008C00009D4A86D40F08050BF
:10132000A865A86D4FF0010800F080500090DFF82C
:101330004CA2DAF8001041F48071CAF80010FFF7EF
:10134000A1FE814610E0D5F88800616C20F44000D1
:101350000843C5F88800D8E7FFF794FEA0EB090022
:10136000022801D9032705E0DAF80000C005F3D50B
:10137000002F7DD04FEA0706B8F1000F03D0A86D0B
:1013800020F08050A8652078C00707D0D5F88800E5
:10139000216A20F003000843C5F888002078800700
:1013A00007D5D5F88800616A20F00C000843C5F81D
:1013B00088002078400707D5D5F88800A16A20F07A
:1013C00030000843C5F888002078800607D5D5F896
:1013D0008800E16A20F440600843C5F8880020884E
:1013E000800507D5D5F88800E16B20F4402008433C
:1013F000C5F888002088400507D5D5F88800216CFD
:1014000020F440100843C5F888002078400607D52E
:10141000D5F88800216B20F440500843C5F88800B7
:101420002078000607D5D5F88800616B20F440408D
:101430000843C5F888002088C00507D5D5F888007E
:10144000A16B20F440300843C5F8880020684FF0B5
:10145000006700034FF0806850D5D5F88800A16C74
:1014600020F040600843C5F88800A06CB84200E056
:1014700005E03BD1E86840F48010E8603EE0D5F834
:10148000900010F4407014D0A16D814211D0D5F8B5
:101490009000D5F8901020F4407041F48031C5F8E8
:1014A0009010D5F8901021F48031C5F89010C5F84F
:1014B0009000C00711D0FFF7E5FD074641F28839DB
:1014C00007E000BFFFF7DEFDC11B494501D9032638
:1014D00052E7D5F890008007F4D5D5F89000A16DBB
:1014E00020F440700843C5F8900045E7404505D119
:1014F0000121201D01F052FA00B106462068400388
:1015000017D5D5F88800E16C20F040600843C5F895
:101510008800E06CB84204D1E86840F48010E860CC
:1015200007E0404505D10121201D01F037FA00B147
:1015300006462088400411D5D5F88800216D20F09A
:1015400040500843C5F88800206DB0F1805F05D198
:101550000221201D01F022FA00B106462088000475
:1015600006D555F8880F616D20F08040084328604B
:10157000304600F005B80000001002400070004046
:1015800018BCBDE8E08F00002DE9F0470F460500CC
:1015900058D0404E306800F00700B84209D2306899
:1015A00020F0070038433060306800F00700B84290
:1015B00048D12878384CC0072CD06868032811D04F
:1015C000022812D0216898B1490500293ADAA168A9
:1015D00021F003010143A160FFF754FD804641F271
:1015E000883910E021688901EFE721688903ECE779
:1015F0008907EAE7FFF746FDA0EB0801494502D954
:101600000320BDE8F087A068696800F00C00B0EB2B
:10161000810FEFD12878800705D5A068A96820F050
:10162000F0000843A060306800F00700B8420BD912
:10163000306820F0070038433060306800F0070061
:10164000B84201D00120DCE72878400705D5A06822
:10165000E96820F4E0600843A0602878000706D518
:10166000A068296920F4605040EAC100A06000F041
:101670005FF8A168094AC1F30311515C01F01F0131
:10168000C8400749086007480068BDE8F047FFF711
:101690004DBD00000020024000100240C07F000845
:1016A000BC010020B40100200F2202600C4A9368A4
:1016B00003F003034360936803F0F00383609368CF
:1016C00003F4E063C36092684FF4E06303EAD2027C
:1016D00002610448006800F00700086070470000DD
:1016E0000010024000200240054806490068896851
:1016F000054AC1F30221515C01F01F01C840704747
:10170000BC01002000100240008000080548064986
:1017100000688968054AC1F3C221515C01F01F01CC
:10172000C8407047BC010020001002400080000843
:1017300070B52549002318468A68CC6812F00C025F
:1017400004F00306214C4FEA640509D00C2A05D0A9
:10175000042A32D0082A00D1284670BD012E10D1AB
:101760000B681B0704D4D1F89430C3F3032302E0C1
:101770000B68C3F30313164E56F82330DAB10C2A64
:10178000EBD1C86800F00300022818D0032818D055
:101790001846CA68CB68C2F30212C3F30623434358
:1017A000521CB3FBF2F2C868C0F34160401C400019
:1017B000B2FBF0F070BD184670BD204670BD2046EB
:1017C000E7E72846E5E70000001002400024F400A7
:1017D000D07F00082DE9F84304006FD0FE4DA868C3
:1017E00000F00C06E86800F003072078C00664D516
:1017F00076B10C2E01D1012F0AD0A06900282868EB
:101800007AD040F001002860FFF73CFC80465DE0A4
:101810002868800702D5A0690028DED0216A2868E0
:10182000000703D5286800F0F00004E0D5F8940024
:10183000F02202EA1010814216D9084601F044F95C
:1018400000283BD1286840F0080028602868216AF9
:1018500020F0F000084328606868E16920F47F40C8
:1018600040EA0120686016E0286840F0080028601F
:101870002868216A20F0F000084328606868E16960
:1018800020F47F4040EA0120686026B9206A01F018
:101890001BF90028D5D1FFF74BFFA968CF4AC1F348
:1018A0000311515C01F01F01C840CD490860CD48CB
:1018B0000068FFF73BFC00287ED12EE0CAE000BFA5
:1018C000FFF7E0FBA0EB0800022876D82868800725
:1018D000F6D5286840F0080028602868216A20F0C2
:1018E000F000084328606868E16920F47F4040EA1E
:1018F0000120686011E0FFE720F001002860FFF799
:10190000C1FB804606E000BFFFF7BCFBA0EB080070
:101910000228DAD828688007F6D42078C00740D09B
:10192000082E18D00C2E01D1032F14D06068B0F50A
:10193000803F17D0B0F5A02F286817D020F4803052
:101940002860286820F4802028606068E0B1FFF7F4
:1019500099FB804614E02868800322D5606800283F
:1019600078D01EE0286840F48030EDE740F4802015
:101970002860F7E7FFF786FBA0EB08006428A4D8EF
:1019800028688003F6D50CE0FFF77CFB804605E075
:10199000FFF778FBA0EB0800642896D8286880033E
:1019A000F6D4207880073BD5042E11D00C2E01D11F
:1019B000022F0DD0E06801E0B6E1FFE000282868C2
:1019C0001ED040F480702860FFF75CFB07460CE0F7
:1019D000286840050CD5E0680028C1D008E000BFA9
:1019E000FFF750FBC01B022893D828684005F7D5A5
:1019F0006868217C20F0F85040EA016068600FE0E0
:101A000020F480702860FFF73DFB074605E000BF2B
:101A1000FFF738FBC01B0228B1D828684005F7D46F
:101A20002078000729D560690028D5F8940012D0E5
:101A300040F00100C5F89400FFF724FB074604E0DE
:101A4000FFF720FBC01B022899D8D5F89400800727
:101A5000F6D512E02BE120F00100C5F89400FFF765
:101A600011FB074605E000BFFFF70CFBC01B022877
:101A700085D8D5F894008007F6D42078400766D53D
:101A8000A86D0027C00008D4A86D40F08050A8655C
:101A9000A86D012700F08050009053480168C905E7
:101AA00012D40168814641F480710160FFF7EAFABF
:101AB000804605E0FFF7E6FAA0EB080002287DD893
:101AC000D9F80000C005F5D5A068012816D0052872
:101AD000D5F8900017D020F00100C5F89000D5F897
:101AE000900020F0040000BFC5F89000A06841F20B
:101AF0008839C0B1FFF7C6FA80460FE0D5F89000EC
:101B000040F00100F0E740F00400C5F89000F5E770
:101B1000FFF7B8FAA0EB080149454FD8D5F8900077
:101B20008007F5D50EE0FFF7ADFA804606E000BF6E
:101B3000FFF7A8FAA0EB080149453FD8D5F8900077
:101B40008007F5D41FB1A86D20F08050A8652078DB
:101B5000800628D5606A0028D5F8980012D040F099
:101B60000100C5F89800FFF78DFA074605E000BFB1
:101B7000FFF788FAC01B022820D8D5F89800800704
:101B8000F6D510E020F00100C5F89800FFF77AFACA
:101B9000074604E0FFF776FAC01B02280ED8D5F8F6
:101BA00098008007F6D4A06AA8B1022824D00C2E91
:101BB0007DD0286820F08070286000E0B3E02868BD
:101BC000000103D4E86820F00300E860E8680749F2
:101BD0000840E8600CE09FE000100240C07F000871
:101BE000BC010020B401002000700040FFFFEEFEA9
:101BF000FFF748FA044699E0E868E26A00F003015A
:101C0000914226D1216B00F07002090110399142F6
:101C10001FD1626B00F4FE41B1EB022F19D194F891
:101C2000382000F07841B1EBC26F12D1A18F00F4DF
:101C3000C00249084905A1F50011914209D194F863
:101C4000401000F0C06049084906A1F100718142CE
:101C50004BD00C2E6FD0286840016CD4286820F03F
:101C600080702860FFF70EFA064604E0FFF70AFAD4
:101C7000801B022857D828688001F7D4F4E90B01AB
:101C80006FF00F0202EB01110843218A5204490848
:101C900002EB4151A26841EA02210843217D4FF045
:101CA0007E42490802EB41610843217B00E042E0AB
:101CB00040EAC160E968214A11400843E8602868A9
:101CC00040F080702860E86840F08070E860FFF7BE
:101CD000D9F9044605E000BFFFF7D4F9001B02283C
:101CE00021D828688001F7D523E02868800120D416
:101CF000286840F080702860E86840F08070E860F4
:101D0000FFF7C0F9044604E0FFF7BCF9001B022806
:101D100009D828688001F7D50BE000BFFFF7B2F9BA
:101D2000001B022802D90320BDE8F883286880013F
:101D3000F4D40020F8E70120F6E700008C809D0134
:101D400070B5040009D0606A002540B12561656165
:101D5000A56294F85D0040B10CE0012070BD6068A0
:101D6000B0F5827FF4D0E561F2E784F85C5020465C
:101D700000F056F8022084F85D002068016821F028
:101D800040010160E1684FF4E062914201D9002016
:101D900001E04FF48050B1F5706F02D0914200D055
:101DA000A562A188228901F4827102F404421143E0
:101DB000227C02F002021143227D02F00102114353
:101DC000228B02F400721143227F02F03802114389
:101DD00094F8202002F080021143228D02F4005278
:101DE000114322681160A169042202EA114194F8AA
:101DF000242000F4805002F01002114394F83420A3
:101E000002F008021143A28902F4706211430143F7
:101E1000206841602566012084F85D00002070BDC7
:101E200010B586B0044614216846FEF78CFA1349B3
:101E3000206888421FD11248016E41F4805101662A
:101E4000016E01F480510591C16C41F00101C16442
:101E5000C06C694600F001000590822000900220CD
:101E600001900020029003200390052004904FF081
:101E70009040FFF71DF806B010BD00000030014093
:101E8000001002402DE9F84F044690F85C0000274E
:101E90001D461646894601280DD04FF0010B84F8E7
:101EA0005CB0FFF7EFF8804694F85D00BA46012871
:101EB00004D00227A4E0022000F0A8B8B9F1000F76
:101EC00074D0002E72D0032084F85D00C4F860A0A6
:101ED000C4F83890A687E687C4F840A0A4F844A0C8
:101EE000A4F846A0C4F850A0C4F84CA0A068B0F56F
:101EF000004F09D12068016821F04001016020688D
:101F0000016841F48041016020680168490603D4FA
:101F1000016841F040010160E068B0F5E06F606881
:101F200023D908B1012E1CD1A06B21680088C8609C
:101F300006E020688168890709D5A16B0988C1601E
:101F4000A06B801CA063E08F401EE08709E0FFF7D4
:101F500099F8A0EB0800A84202D3681C01D046E023
:101F6000ADB3E08F0028E4D136E008B1012E30D1C6
:101F7000E08F0128A06B03D921680088C8600FE0BA
:101F800021680078087314E0E08722E02068816807
:101F9000890714D5E18F0129A16B08D90988C1608F
:101FA000A06B801CA063E08F801EEDE727E009781E
:101FB0000173A06B401CA063E08F401EE4E7FFF7B5
:101FC00061F8A0EB0800A84202D3681C01D00EE023
:101FD0006DB1E08F0028D9D142462946204600F055
:101FE000B1FD08B120202066A06810B105E00327EC
:101FF00006E02068C16880680090206E00B101276B
:1020000084F85DB084F85CA0384655E718BCBDE89C
:10201000E08F704770477047F0B590F83C20012A78
:1020200029D0012480F83C40022280F83D2003683A
:102030005A689D68114EB34203D122F470074A6872
:102040003A4322F070070A683A435A600268B24283
:1020500005D0B2F1804F02D0094B9A4204D1896871
:1020600025F080031943916080F83D40002180F8FD
:102070003C100846F0BD0220F0BD0000002C0140DD
:102080000040014010B5040003D094F83D0010B1A9
:1020900007E0012010BD002084F83C00204600F03D
:1020A00023F8022084F83D00211D206800F090FEF6
:1020B000012084F8480084F83E0084F83F0084F84A
:1020C000400084F8410084F8420084F8430084F81A
:1020D000440084F8450084F8460084F8470084F8FA
:1020E0003D00002010BD000008B500680649884288
:1020F00008D10648816D41F020018165806D00F0B6
:102100002000009008BD00000014004000100240B4
:1021100090F83D10012901D001207047022180F87C
:102120003D100168CA6842F00102CA6000680B49AC
:10213000884205D0B0F1804F02D00949884207D1CA
:102140008168084A1140062906D0B1F5803F03D0C6
:10215000016841F00101016000207047002C01403E
:102160000040014007000100704770B50446006858
:1021700001694FF00005C943890715D4C168C943F7
:10218000890711D4E91E0161012020772068806948
:102190008007204602D0FFF7E7FF04E000F0A7F831
:1021A000204600F0A5F8257720680169C943490752
:1021B00017D4C168C943490713D46FF00401016102
:1021C000022020772068806910F4407F204602D0EA
:1021D000FFF7CAFF04E000F08AF8204600F088F814
:1021E000257720680169C943090716D4C168C94326
:1021F000090712D46FF008010161042020772068DC
:10220000C0698007204602D0FFF7AEFF04E000F06F
:102210006EF8204600F06CF8257720680169C94304
:10222000C90617D4C168C943C90613D46FF0100199
:102230000161082020772068C06910F4407F2046A3
:1022400002D0FFF791FF04E000F051F8204600F0C3
:102250004FF8257720680169C943C90708D1C168CB
:10226000C943C90704D1891E0161204600F042F824
:1022700020680169C943090609D4C168C943090630
:1022800005D46FF0800101612046FFF7C3FE20688E
:102290000169C943C90509D4C168C943090605D400
:1022A0006FF4807101612046FFF7B3FE2068016979
:1022B000C943490609D4C168C943490605D46FF02A
:1022C00040010161204600F01FF820680169C94300
:1022D00089060BD4C168C943890607D46FF0200171
:1022E00001612046BDE87040FFF795BE70BD7047A4
:1022F0007047000000680349884201D1FEF7FEBE26
:1023000070470000004401407047704770477047B5
:102310002DE9F04102680446D0691168936840F6DF
:102320000F0528424FF0000505D1860678D58E06A8
:1023300076D5616EF3E0834F03F001060F4037431B
:102340007ED0C70709D0CF0507D501271762D4F87B
:10235000802042F00102C4F8802082070AD5DA0703
:1023600008D0276802223A62D4F8802042F00402A2
:10237000C4F8802042070AD5DA0708D0236804226F
:102380001A62D4F8802042F00202C4F880200207CA
:102390000CD501F02002324308D0236808221A62CB
:1023A000D4F8802042F00802C4F8802002050BD542
:1023B0004A0109D523684FF400621A62D4F88020DC
:1023C00042F02002C4F88020D4F88020002A2FD0C8
:1023D000800605D5880603D5616E09B12046884779
:1023E000D4F8800021688968490602D410F0280FCB
:1023F00020D0204601F07CF820688168490614D579
:10240000816821F040018160206F70B14E49816385
:10241000206FFEF731FC00280AD0206F816B01E0AD
:102420000EE02046BDE8F04108472046FFF76FFF69
:10243000BDE8F0812046FFF76AFFC4F88050F7E757
:10244000276E2026012F59D1C70657D5CF0655D55F
:10245000102010622268906840062ED5216F08680F
:1024600040680004000CE3D0B4F858308342DFD950
:10247000A4F85A0008680068800617D4106820F491
:10248000807010602068816821F0010181602068FF
:10249000816821F040018160E66725662068016857
:1024A00021F010010160206FFEF7C1FBB4F8580065
:1024B000B4F85A10401A81B21CE0B4F85800B4F8CD
:1024C0005A10401A81B2B4F85A000028B0D000293E
:1024D000AED0106820F4907010602068826822F0FE
:1024E00001028260E667256665662068026822F060
:1024F000100202602046FFF708FF99E7C70209D5DE
:102500005B0207D54FF4801010622046BDE8F04111
:10251000FFF7FCBE030606D50B0604D5A16E002905
:102520007FF47FAF84E7400682D5480680D51068E7
:1025300020F040001060A6672046A56600F08FF9E5
:1025400076E70000200100041934000810B50400EB
:1025500002D0A06F10B107E0012010BD002084F868
:102560007400204600F026F82420A0672068016847
:1025700021F001010160204600F0DAFF0128ECD0D3
:10258000606A10B1204600F0B5FE2068416821F471
:10259000904141602068816821F02A0181602068B3
:1025A000016841F0010101602046BDE8104000F0E3
:1025B00005BF00002DE9F0439DB00646142117A881
:1025C000FDF7C1FE5C216846FDF7BDFE4749306856
:1025D000474D022700244FF003084FF007098842B7
:1025E0005BD10120009008946846FEF76FFE08B1A9
:1025F000FEF71CFB286E40F480402866286E00F42D
:1026000080401C90E86C40F00100E864E86C19AA76
:1026100000F001001C904FF4C060CDE9170782E87C
:10262000100317A94FF09040FEF742FC324D31489D
:102630004FF080082860C5E90174C5E903482020EF
:102640006C61C5E90640C00128622846FEF798FB88
:1026500008B1FEF7EBFA3567AE622648274D14380D
:10266000E5E802071020A5E81101244845F81449BF
:10267000AC61EC612C62FEF783FB08B1FEF7D6FA81
:10268000F566002205212520AE62FEF7B1FD25206A
:10269000FEF7A0FD1DB0BDE8F08319498842F9D1CD
:1026A00004200A9400906846FEF710FE08B1FEF779
:1026B000BDFAA86D40F48020A865A86D00F48020C4
:1026C0001C90E86C40F00200E864E86C19AA00F085
:1026D00002001C904FF44060CDE9170782E8100318
:1026E00017A90848FEF7E4FBD4E7000000380140D2
:1026F000001002405800024018040020600400202E
:10270000004800400004004830B4C36F202B1BD1A8
:10271000B9B1B2B190F87430012B15D0012380F813
:10272000743000230366094C0368A34206D05C683A
:10273000240203D51C6844F080641C6030BC00F0A7
:10274000F7BF012030BC70470220FBE7008000404B
:1027500008B500680E49884218D100200D4903468B
:10276000009008466A46006C04F0F0FE012802D092
:1027700009A001F079F80098002807D008494FF027
:1027800080500860BFF34F8FBFF36F8F08BD00000C
:1027900000380140000000202A2A402424000000C4
:1027A00004ED00E0704700002DE9F8430446806F17
:1027B0001F4616460D4620284FD1CDB1C6B194F81C
:1027C0007400012849D0012084F874004FF00008FB
:1027D000C4F880802120A067FEF754FCA4F8506064
:1027E0008146A4F85260A068B0F5805F03D004E091
:1027F0000120BDE8F883206928B12E465FF000056E
:1028000084F8748010E00026FAE78021204600F06A
:10281000D1FFB8B9C6B116F8010B21680885B4F824
:102820005200401EA4F85200B4F852004B464FF03C
:10283000000200970028E8D14FF04001204600F048
:10284000B9FF30B10320D4E735F8020BC0F308001C
:10285000E3E72020A0670020CBE70220C9E770470C
:10286000FEE70000F0B587B014216846FDF76BFD68
:102870002148C16C41F00401C164C16C01F0040144
:102880000591C16C41F00101C164C16C01F001010D
:102890000591C16C41F00201C164C06C012200F0DD
:1028A0000200164E5403059021463046FEF7E4FB25
:1028B0004FF09047002234213846FEF7DDFB01251A
:1028C000CDE900450024CDE9025469463046FEF7C3
:1028D000EFFA34200090CDE901546946384603945C
:1028E000FEF7E6FA0820CDE900046946384602946E
:1028F000FEF7DEFA07B0F0BD001002400008004805
:102900000E480D494FF4E06201604FF4827141605E
:102910000021C0E902124FF400720161C0E9051202
:102920001022C0E9072107224162C0E90A120163AF
:1029300008214163FFF704BA003001406002002023
:102940000948084901604FF4E1314160002181608C
:102950000C22C160C0E904128161C161016241625F
:10296000FFF7F4BD00380140100300200948084972
:1029700001604FF4E1314160002181600C22C160AF
:10298000C0E904128161C16101624162FFF7DEBDED
:102990000048004094030020FEE770472DE9F04115
:1029A000444C05468846E0680026810728680DD01B
:1029B000E16801F00301814216D1A8B1E0686968BD
:1029C000C0F30210401C88420ED120E0012804D040
:1029D000022805D0032807D108E02168890701E013
:1029E00021684905002907DB01265FE0216889038A
:1029F00002D421684903F5E7E1686A686FF00F03C4
:102A000021F0730103EB021211430143E1602068DE
:102A100020F080602060FEF735FB074605E000BF30
:102A2000FEF730FBC01B022837D820680001F7D41E
:102A3000B8F1000F18D0B8F1010F1DD0287D4FF06C
:102A40007E41400801EB4060A96840EA012021690D
:102A5000194A114008432061206840F080602060DE
:102A6000FEF710FB07461AE0A868297B000240EA3F
:102A7000C1602169114AECE7288A1149400801EB3D
:102A80004050A96840EA012021690E4AE1E700BFF1
:102A9000FEF7F8FAC01B022801D9032606E02068D9
:102AA0000001F5D52069A969084320613046BDE8D9
:102AB000F081000000100240FF80FFF9FF80FF0757
:102AC0000000E0FFFF809FFFF8B51C4D0646002484
:102AD000A86DC00002D5FEF7F1FB0DE0A86D40F037
:102AE0008050A865A86D00F080500090FEF7E6FBCE
:102AF000A96D21F08051A965B0F5007F04D0802E2A
:102B000007D94FF003040AE0802E08D9A02E01D87F
:102B100004E001D1022402E0702E00D10124084813
:102B2000016821F0070121430160006800F00700FF
:102B3000A04201D00120F8BD0020F8BD00100240E5
:102B400000200240F8B515460E460B46009204469A
:102B500000224FF4C05100F019F888B93346002222
:102B600080212046009500F07BF848B933460022CA
:102B70004FF4C0612046009500F008F8002804D00A
:102B8000206E40F0200020660320F8BD2DE9FC47B0
:102B9000994617460E4604460A9DFEF773FA411BF6
:102BA000A9EB0105FEF76EFA80462A484FF4C06A89
:102BB0000068C0EBC00000EB8000000D684300908F
:102BC00040E0564502D10FB9007B0190B9F1FF3FBB
:102BD00038D0FEF757FAA0EB0800A84203D215B18F
:102BE000009860B32CE02068416821F0E00141606A
:102BF0006068B0F5827F0BD1A068B0F5004F02D0BD
:102C0000B0F5806F04D12068016821F040010160B7
:102C1000A06AB0F5005F09D12068016821F4005175
:102C200001602068016841F400510160012084F8CE
:102C30005D00002084F85C00032000F00DB8002542
:102C4000401E0090206881683140B942B9D100200F
:102C5000F3E70000BC0100200CBCBDE8F0870000D9
:102C60002DE9F8431E46914688460446089DFEF726
:102C700009FA401B351AFEF705FA07462548006891
:102C8000C0F3CB30684338E0701C37D0FEF7FAF958
:102C9000C01BA84203D215B1009860B32CE0206895
:102CA000416821F0E00141606068B0F5827F0BD19E
:102CB000A068B0F5004F02D0B0F5806F04D1206855
:102CC000016821F040010160A06AB0F5005F09D100
:102CD0002068016821F4005101602068016841F416
:102CE00000510160012084F85D00002084F85C0040
:102CF0000320BDE8F8830025401E0090206881680D
:102D000038EA010004D000214945BDD10020F0E798
:102D10000121F9E7BC01002010B54FF0E020006967
:102D200004F062FE012803D0BDE8104004F072BA3E
:102D300010BD10B596B044216846FDF704FB142180
:102D400011A8FDF700FB4FF40070FEF783FA18207E
:102D5000009001200024CDE9060405908020089011
:102D60000A946846FEF736FD0F20CDE9110413944E
:102D70001494002111A81594FEF706FC16B010BD9E
:102D80000D48016841F4700101600C48016841F090
:102D900001010160002181600268094B1A40026054
:102DA0008214C260026822F48022026081610249BA
:102DB000C00380390860704788ED00E000100240D1
:102DC000FFFFF6EA0148FFF7D0B90000A804002091
:102DD00070B50268164B4FF08046984201D0B04261
:102DE00003D122F070044A682243124C124D9842DB
:102DF00005D0B04203D0A04201D0A84203D122F4B2
:102E00004076CA6832434E6922F080023243026043
:102E10008A68C2620A688262984203D0A04201D0E6
:102E2000A84201D1096901630121416170BD00001F
:102E3000002C014000400140004401400C4D4FF483
:102E400000544FF47A760B48FEF751F900222146E0
:102E50002846FEF711F9012003F00CF90122214662
:102E60002846FEF709F9304603F004F9EBE70000C5
:102E700000080048500200201CB50020DFF86880E0
:102E8000DFF868904FF0FF3A019051464446D8F879
:102E9000640004F057FC60610128F6D1D9F8000005
:102EA0004C4605B2BEB1304602F04EFC10EE107A30
:102EB00001A9304602F0E6FB24683846FDF77EFAA9
:102EC00041EC100B601B00B2009053EC102B08A0DB
:102ED00000F0CAFCD9E70DA000F0C6FC01A93046FD
:102EE00002F0D0FBD1E700000000002024140040D5
:102EF000726573756C743D20252E356620207469CB
:102F00006D653D257575730D0A00000053796E746B
:102F10006178206572726F72210D0A001FB5002062
:102F2000DFF80C91434C471E40F648380390414966
:102F30003A461C31A06C04F069FB20623EA000F010
:102F400093FC206A0128F2D1E0690278417807EB0E
:102F5000022211448EB285783246294639A000F00B
:102F600083FC012D2FD0022D5DD1D9F80000002364
:102F70000FFA80FAE06903AA3146C01C01F0D2FEC4
:102F8000050018D002F0E0FB10EE106A03A92846F5
:102F900002F078FBD9F800503046FDF70FFA41EC0B
:102FA000100BA5EB0A0000B2009053EC102B2DA0E3
:102FB00000F05AFC37E032A000F056FC03A9284686
:102FC00002F060FB2FE04546404603F01BFD0190F8
:102FD000284603F017FD0290019810B92CA000F0CC
:102FE00043FC029810B92FA000F03EFC0020E169DC
:102FF000019A0144C9781154E169014491F84B2BBD
:1030000002990A54401CA842F1DB00230A2201A9BC
:10301000E06C04F0EBF9206228B9019803F068FE37
:10302000029803F065FEE06903F062FE7FE70000AE
:10303000241400400000002044656275673A20694E
:103040006E0D0A0044656275673A20636F6D6D61AD
:103050006E64256420646174616C656E25640D0A7C
:1030600000000000726573756C743D20252E356676
:10307000202074696D653D257575730D0A0000008B
:1030800053796E746178206572726F72210D0A0037
:1030900044656275673A20626C61636B20666169A2
:1030A0006C00000044656275673A2079656C6C6F4E
:1030B00077206661696C00001CB5114C4FF0FF353C
:1030C0002A466946E06C04F0A1FA2061012802D189
:1030D0000CA000F0C9FBFDF79FFCFDF717FDDDE933
:1030E0000001FDF7DDFC0EA000F0BEFBFDF780FC4B
:1030F000009803F0FDFD019803F0FAFDE0E7000001
:103100000000002044656275673A2072656672654A
:103110007368696E672073637265656E210D0A00BE
:1031200044656275673A2053637265656E20526527
:1031300066726573682046696E697368210D0A00BE
:103140004FF47A74204602F095FFFBE708B500269D
:10315000414CB04637463546A07898B1FA223E49F0
:10316000206C491C04F052FA0146E060012810D09E
:1031700032463AA000F078FBA078062805D0072850
:1031800003D005E04FF0FF32E9E7009803F0B0FD0F
:10319000A570A07808285CD2DFE800F004090E14BE
:1031A0001A2537476078112853D1012019E060783B
:1031B00022284ED1022014E06078332849D100271C
:1031C00003200EE06078A0803844C7B2042008E0F5
:1031D0006078E0803918CFB2217900EB012020819E
:1031E0000520A070B8E76078B8420CD1208900268D
:1031F000B046801C03F006FC009021790170A17993
:1032000041700620EDE71CA021E000996078314470
:10321000761C88706178B6B208EB010000F0FF08F8
:103220002089864298D10720DBE7617841450AD1A1
:1032300016A000F019FB00230A226946A06C04F0D6
:10324000D5F8009505E0009803F052FD16A000F0B7
:103250000BFBA57080E700000000002074696D651D
:103260006F7574213078256C78204C454E47544852
:103270003D25640D0A000000636865636B6C656E34
:103280002077726F6E67210D0A0000004465627539
:10329000673A2072656369657665206120667261B0
:1032A0006D650D0A0000000044656275673A206391
:1032B0006865636B73756D2077726F6E67210D0A99
:1032C000000000004FF0FF35084C08492A4618312D
:1032D000606C04F09BF90128F7D105A0A16900F00A
:1032E000C3FAA06903F004FDEFE70000000000202E
:1032F0002573000090F82410C90706D001684A68B9
:10330000836A22F400321A434A6090F82410890735
:1033100006D501684A68C36A22F480321A434A60BB
:1033200090F82410490706D501684A68036B22F417
:1033300080221A434A6090F82410090706D50168D4
:103340004A68436B22F400421A434A6090F8241002
:10335000C90606D501688A68836B22F480521A4335
:103360008A6090F82410890606D501688A68C36BC4
:1033700022F400521A438A6090F82410490611D5AD
:1033800001684A68036C22F480121A434A60016C97
:10339000B1F5801F06D101684A68436C22F4C0026F
:1033A0001A434A6090F82410090606D501684A6855
:1033B000806C22F4002202434A607047F8B5002670
:1033C0000446C0F88060FDF75DFE05462068006891
:1033D0006FF07E47000708D52B4600224FF40011FE
:1033E0002046009700F0E6F960B9206800684007C1
:1033F0000AD52B4600224FF480012046009700F0AA
:10340000D9F908B10320F8BD2020A067E06726663F
:1034100084F874600020F8BD10B5806A0021A0F81F
:103420005A10A0F85210FEF772FF10BD70B5846AF2
:10343000A06FE56F216889684FF00006090606D580
:10344000212804D1A4F85260204600F069F82068D1
:103450008068400606D5222D04D1A4F85A60204683
:1034600000F046F8D4F8800040F01000C4F8800066
:103470002046FEF74CFF70BD10B50146806A096812
:10348000096889061BD40021A0F85A1001680A684F
:1034900022F480720A6001688A6822F001028A6060
:1034A00001688A6822F040028A602021C167016EAB
:1034B000012904D101680A6822F010020A60016E35
:1034C000012902D0FFF744F910BDB0F85810FEF7FB
:1034D0001CFF10BD10B5806A016E012902D0FFF7F4
:1034E00061F910BDB0F858104908FEF70EFF10BD85
:1034F00001680A6822F490720A6001688A6822F002
:1035000001028A60016E012904D101680A6822F073
:1035100010020A602021C1670021016641667047E0
:1035200001680A6822F0C0020A60202181677047A2
:103530002DE9F0410446016880682269E36910437F
:10354000626900251A431043714F0A68714B1A4093
:1035500002430A6020684168E26821F44051114347
:1035600041602168A069B94201D0226A10438A688B
:1035700022F4306202438A606749236867488B42BD
:103580000DD1D0F8880010F0030006D0012847D0F4
:10359000022843D0032830D144E001212EE06049C5
:1035A0008B420BD1D0F8880010F00C0034D00428E6
:1035B00036D0082832D00C281FD133E059498B422D
:1035C0000BD1D0F8880010F0300025D0102827D07B
:1035D000202823D0302810D124E0BB420DD1D0F8D0
:1035E000880010F4406017D0B0F5806F18D0B0F5A7
:1035F000006F13D0B0F5406F14D010214A4A002656
:103600004FF40040BB422DD171B102290FD00429E3
:103610000FD0082972D10FE00021EFE70221EDE77A
:103620000421EBE70821E9E7FEF75EF803E0104626
:1036300002E0FEF77DF8E0B3626802EB42018142EE
:103640005CD8B0EB023F59D8010E0302500818189D
:1036500071410023FCF726FE344AA0F540719142E7
:103660004ED94BE0E3694FF6EF77834228D1092921
:1036700044D2DFE801F005080B430D43434310003B
:10368000FEF732F806E0FEF741F803E0104602E0EC
:10369000FEF74EF868B14100606801EB5001B1FBE4
:1036A000F0F081B2A1F11000B84227D84FF6F072C5
:1036B00000E027E001EA0200C1F3420108431FE0F5
:1036C00009291BD2DFE801F005080B1A0D1A1A1A96
:1036D0001000FEF709F806E0FEF718F803E01046C0
:1036E00002E0FEF725F868B1616800EB5100B0FB1D
:1036F000F1F080B2A0F11001B94201D9012501E039
:103700002168C86066662846A666BDE8F0810000AC
:1037100000800040F369FFEF0038014000100240D4
:1037200000440040004800400024F400FFFC0F006B
:1037300070B54165A0F8582000250446C0F88050B7
:103740002220E067206FD8B11749C162216F174866
:1037500013460863216F16484863206F8563666DC2
:10376000216832462431206FFDF76AFB40B11020FA
:10377000C4F8800004F8745F20206060012070BDF0
:1037800084F874502068016841F4807101602068F9
:10379000816841F0010181602068816841F0400149
:1037A0008160002070BD000079340008D534000825
:1037B0002D3400082DE9F0479A4617460E46044678
:1037C0004FF000094FF02008089D39E0681C37D001
:1037D000FDF758FCA0EB0A00A84222D80DB32068E0
:1037E000016849072CD5C069C043000528D4216869
:1037F0004FF4006008622068016821F4D071016014
:103800002068816821F001018160C4F87880C4F8E3
:103810007C80C4F8808000BF84F874900320BDE8E9
:10382000F0872068016821F4D07101602068816808
:1038300021F001018160C4F87880C4F87C80EBE756
:103840002068C06936EA000004D00020B842BDD02C
:103850000020E4E70120F9E70148FEF759BD000028
:1038600010030020FEE700000FB4054B10B503A9BC
:10387000044A029800F02CFD10BC5DF814FB000017
:10388000015E0008400200200FB41CB50246002073
:1038900007AC00290BD0491ECDE90021054B6A4633
:1038A0002146069800F014FD009A002111701CBCFE
:1038B0005DF814FB054A00084100080218BF042007
:1038C0000A0E18BF40F001004FF07F4232EA0101BA
:1038D00008BF40F00200012808BF0520704720F013
:1038E0000040C0F1FF40C00F70470907090E0028D3
:1038F00004DB00F1E02080F80014704700F00F00B6
:1039000000F1E02080F8141D7047000030B528B1A8
:10391000144C031F002021680A4605E0084630BD0C
:103920009A4203D810465268002AF9D1002800D0E4
:1039300041680BD00468A3EB0005A54204D11B68C5
:103940001C440346046002E0436000E023603AB197
:103950001C68D51AA54203D115682C441C60526816
:103960005A6030BD4402002010B52DED028BF0EE00
:10397000408A18EE900AB0EE608A20F00040C0F154
:10398000FF40C00F07D118EE100A20F00040C0F130
:10399000FF40C00F2BD018EE101A18EE900AFCF75B
:1039A00055FD00EE100A10EE100A6FEAD05010F02C
:1039B000FF0F04BFBDEC028B10BD18EE900A00F0A3
:1039C000004110EE100A00F00040814204BFBDEC3F
:1039D000028B10BD18EE101A10EE100ABDEC028B0F
:1039E00061F31E0000EE900A30EE600A10BD18EE82
:1039F000900A4FF07F41B1EB400F1CBF18EE100A48
:103A00005FEA4000C7D1012000F096FBBDEC028BBD
:103A1000BDE8104000F068BB10B510EE100A2DEDA7
:103A2000068BB7EE001A10EE901AB0EE418A002213
:103A3000A0F5000CDFEDFE9A4FF00073BCF1FE4FD5
:103A40004FF07F4403EB410C80F0B481BCF1804F18
:103A5000C0F02082F74901449FEDF73AB1F5005FCD
:103A600040F2D48200F58021CB0C03F00F0101EE6F
:103A7000901AC3F307137F3BA0EBC350B8EEE12AC3
:103A800000EE100A1A44DFEDED2AF0EE411A42EE84
:103A9000221AF0EE613A70EE232A30EE632A12EE1B
:103AA000900A00F500606FF30B0001EE900A73EED0
:103AB000E13A33EE804AC1EE223A22EE230A10EEBA
:103AC000100A00F500606FF30B0000EE100A00EE24
:103AD000612A00EE442A62EE232A70EE221A21EEB9
:103AE000A12ADFEDD73A02EE233A23EE023A20EE86
:103AF000012A22EE811A03EE211A32EE010A10EE9B
:103B0000100A00F500606FF30B0000EE100A72EE71
:103B1000401A31EE812A9FEDCB1A60EE011A9FED1B
:103B2000CA1A20EE011A9FEDC90A02EE001A31EE00
:103B3000810A10EE100A00F500606FF30B0000EE32
:103B4000100AC34871EEC01A31EE812A784400EBA6
:103B5000C10090ED003AD0ED011A100101EE100AFB
:103B6000F8EEC12A32EE211A31EE001A31EE031AB4
:103B700031EE221A11EE100A00F500606FF30B000F
:103B800009EE100A39EE621A31EE431A31EE400A9C
:103B900030EE610A32EE40AA10EE900A002100F5E4
:103BA00000606FF30B0008EE900A084670EEE8AA7A
:103BB000FCF738FE29EE280A00F00C01F0EEC00AEE
:103BC00010EE900AB0F18B4F0DDD10EE900AB4EBC1
:103BD000400F08D310EE100A4FF08B4262F31E0024
:103BE00008EE900A13E069EE2A0A38EEAA1A4AEEA5
:103BF000010A30EE201A11EE100A00F500606FF392
:103C00000B0008EE900A30EE680A70EE209A0C2045
:103C1000FCF708FE38EEA90AB5EEC00AF1EE10FA7C
:103C200034BFFEEE000AF6EE000A30EE800ABDEE6A
:103C3000C00A10EE100A011100EE101AF8EEC00AC8
:103C400000EE100AB8EEC00A38EEC00A30EE290ABB
:103C5000DFED801A9FED801A00EE211ADFED7F1A4A
:103C60007F4900F00F0040EE011A21EE800A7944EE
:103C700001EB800191ED001A7A49794401EB800152
:103C8000D1ED001A784901EE801A794401EB8000E9
:103C9000764990ED000A31EE001AB0EEE00A10EE1F
:103CA000100A884215DA10EE100AB4EB400F10D358
:103CB0009FED6F0A30EE800ADFED6E0A20EE200ADB
:103CC00068EE010ABDEC068BBCEEC00A20EE200AAD
:103CD00010BD10EE100A6849884243DA10EE100A4F
:103CE000B4EB400F3ED3BDEEE00A68EE010A10EEE1
:103CF000100A00EBD0725110C90501F17E5100EE9F
:103D0000101AA0EB6200C00560EE200A00F17E50A0
:103D100000EE100A60EE808A18EE900AB4EB400FB5
:103D20000FD1022000F008FA00F0E6F910EE101AA8
:103D300018EE100ABDEC068B61F31E0000EE100AAF
:103D400010BD18EE900A400011D018EE900AFFF74F
:103D5000B3FD042808BF00F0D7F9B0EE680ABDEC47
:103D6000068B10BDF5EEC00AF1EE10FA0FD202205C
:103D700000F0E2F900F0C8F910EE101A18EE100A7F
:103D8000BDEC068B61F31E0000EE100A10BD022090
:103D900000F0D2F900F0B0F910EE101AB0EE480AB7
:103DA00010EE100ABDEC068B61F31E0000EE100A47
:103DB00010BD00BFBCF1804F6CD300BF00F1FF43CA
:103DC000B3F1FE4F24D200BFB0EEC00A10EE100ACD
:103DD000C1F3C7537F2B0DDB972BBFF63BAEC3F16F
:103DE00096034FF0010C0CFA03F3A3F1010C1CEA4B
:103DF000010F08D0012000F09FF9BDEC068BBDE853
:103E0000104000F071B90B4218BFBFEE008A21E6E6
:103E100043001CBF4FF08073B3EB400F34D96FF0F9
:103E20001A02DFED161A20EE210A10EE100A27E022
:103E300000000000001080C0ABAAAA3E0000803D38
:103E40007EE24C3E00B03842D49AB8BB3BAA38421E
:103E5000B8440000FC596337C9FF753A1872313D08
:103E6000564400008A440000FA4300000000FC426F
:103E70000000FE420000004B000040430000004DE7
:103E800010F0004FA0D1E5E5A0F50003B3F1FE4F1F
:103E900021D2DFE503EB4103B3F1007F11D3F5EE4F
:103EA000C00AF1EE10FA05D1430018BFB4EB400F81
:103EB00076D883E701F0004141F0FC5100EE901A02
:103EC0007CE7B3F1807F06D210EE903AA3F50003B1
:103ED00000EE903A72E720F000426FF0FF4C604C29
:103EE00002EB0C03A34210D321F000439C44A445F1
:103EF0000BD3B0F17E5F18BF5FEA410C50D0B2F136
:103F0000FF4F98BFB3F1FF4F05D9BDEC068BBDE85D
:103F1000104000F0E5B8B0F1FF4F0FD0C1F3C75229
:103F20007F2A09DB972A11DAC2F19602012303FAEC
:103F300002F2531E0B4205D0002208E011F0004FA0
:103F400055D128E00A4218BF012200D1022210F503
:103F5000000F13D028B3B0F1004F26D010F1814FDD
:103F60004FD04FF0FE42B2EB400F94BF0120002033
:103F7000012202EBE171884239D10CE011F0004FCF
:103F800002D0012A38D032E0012A02BF9FED350A63
:103F9000BDEC068B10BD9FED340ABDEC068B10BD49
:103FA0002FE011F0004F0CD121E0B1F1FF4F1ED0F6
:103FB00011F5000F05D011F0004F15D00AB1012AFC
:103FC00008D0022000F0B8F8BDEC068BBDE8104028
:103FD00000F07CB8022000F0AFF800F077F8BDECFC
:103FE000068BB1EE400A10BD0AB1012A04D0B0EE32
:103FF000690ABDEC068B10BDBDEC068B9FED1B0A5C
:1040000010BDBDEC068BB7EE000A10BD30EE410AC4
:10401000B5EE001A9FED172A00EE413AB6EE001AEF
:1040200060EE001A00EE431A61EEC11A9FED101AFD
:1040300020EE011A20EE020A9FED0F2A01EE820AFD
:1040400071EE001A11EE900A00F500606FF30B009C
:1040500009EE100A31EE491A31EE00AA9CE5000083
:10406000FFFF3F00000080FF0000807F0000008015
:1040700000B0B841D49A38BB3BAAB8412DE9F0470B
:1040800082460F4C10480D4E0E4F001B4FF000089B
:1040900020F007054FF0010900221146504601F0BB
:1040A000BBFE002802D1306810B10020BDE8F087C7
:1040B0003C60C4E90058C6F80090EDE748020020D3
:1040C000CC91002044020020C8A10020DFED030AAB
:1040D000B7EE001A81EE200A7047000000000000D1
:1040E00030EE200A70470000DFED020A80EEA00AE1
:1040F00070470000000000009FED020A20EE000A59
:1041000070470000000000709FED020A20EE000AD8
:10411000704700000000001002E008C8121F08C12C
:10412000002AFAD170477047002001E001C1121F38
:10413000002AFBD170470000014908607047000069
:104140004C0200202DE9FF5F82B00021DDE9043040
:10415000020DDDF840B0034318D044F61050A2F22F
:10416000FF3242431514119801281FD0A5EB0B0014
:10417000401C5FEA000A4FF000064E4FDFF838910E
:10418000B046504615D5CAF1000413E01198012439
:104190004AA3012801D16FEA0B010298119AC0E9E4
:1041A0000031C0E9024206B000F08EB8CBF1000049
:1041B000DFE704460021404A491842EB0450CDE9AC
:1041C000001012E0E00707D032463B464046494621
:1041D000FCF714FA8046894632463B46104619469B
:1041E000FCF70CFA06460F466410002CEAD1DDE914
:1041F0000401DDE90023BAF1000F06DAFCF7FEF94D
:1042000042464B46FCF7FAF905E0FCF76CFA4246E9
:104210004B46FCF768FA04460E460022284BFCF792
:10422000E9FA03D84FF0FF30014607E00022254BA2
:1042300020463146FCF733F9FCF7C4FA102409E0B4
:10424000002C0ADB0A220023FCF72CF8039B3032F7
:104250001A55641E50EA0102F2D1641C039AC4F19B
:1042600011031444119A012A03D0012208430DD1ED
:104270000AE0084304D000204FF0110B119072E7C0
:10428000A3EB0B056D1E0DE05B4504DD4FF0000256
:1042900005F1010504E003DA4FF00002A5F1010584
:1042A000002AECD002981199C0E90231C0E900451A
:1042B00079E70000000014400000F03F30000000EB
:1042C0000000F0430000E03F30BCBDE8C09F0000AC
:1042D0002DE9FF4F95B09B468946064600250FE223
:1042E000252877D100242746F84A0121059400E0CB
:1042F000044316F8013F203B01FA03F01042F7D1C6
:1043000030782A2811D06FF02F033078A0F13002D6
:10431000092A16D8059A44F0020402EB820203EB44
:1043200042021044761C0590EFE759F8042B0592E1
:10433000002A03DA504244F40054059044F0020489
:10434000761C30782E2816D116F8010F44F004049C
:104350002A280DD06FF02F023078A0F13003092BFE
:1043600009D807EB870302EB4303C718761CF3E772
:1043700059F8047B761C30786C280FD006DC4C286A
:1043800017D068280DD06A2814D104E0742810D002
:104390007A280FD10DE044F400140AE044F48014AC
:1043A00001E044F440147278824202D104F5801492
:1043B000761C761C307866280BD013DC582877D012
:1043C00009DC002875D04528F6D04628F4D04728C7
:1043D0001AD19DE118E0632835D0642879D065288A
:1043E00012D195E1702873D008DC6728F1D06928D4
:1043F0006FD06E280DD06F2806D1B5E073282CD071
:10440000752875D0782874D05A46179990476D1C36
:1044100075E1C4F30250022809D003280DD0D9F861
:10442000001004280DD00D6009F1040967E1D9F8E6
:104430000010EA17C1E90052F6E7D9F800100D8024
:10444000F2E70D70F0E719F8041B8DF8001000205A
:104450008DF80100EA46012003E059F804AB4FF063
:10446000FF3061074FF0000102D40DE008F10101B7
:104470008846B9420FDA8045F8DB1AF8081000299F
:10448000F4D108E008F1010188468142FADB1AF80C
:1044900008100029F6D105985B46A0EB08072146D5
:1044A0003846179A00F097FA284400EB080507E011
:1044B0004DE029E10DE01AF8010B5A461799904793
:1044C000B8F10108F7D25B4621463846179A13E146
:1044D00042E00A220092C4F302524FF0000A022A7C
:1044E00008D059F804CB032A4FEAEC710AD00DE04A
:1044F00029E02AE009F1070121F00702F2E802C1F0
:10450000914609E00FFA8CFC4FEAEC71042A03D1C2
:104510004FFA8CFC4FEAEC71002907DA0A460021B9
:10452000DCF1000C61EB02012D2202E0220504D532
:104530002B228DF80420012203E0E20701D0202283
:10454000F7E7904659E00A2102E010220DE0102121
:104550004FF0000A00910BE010224FF0000A44F0E7
:1045600004040827009203E008224FF0000A00929A
:10457000C4F30252022A05D059F804CB0021032AC1
:1045800008D009E009F1070121F00702F2E802C1B1
:10459000914605E01FFA8CFC042A01D10CF0FF0CB7
:1045A0004FF00008220728D5702806D0009B83F022
:1045B000100353EA0A0305D00EE040228DF80420D0
:1045C000012208E05CEA010206D030228DF80420C6
:1045D0008DF8050002229046009B83F0080353EA01
:1045E0000A030AD15CEA010201D1620705D5302233
:1045F0008DF804204FF001087F1E582804D034A005
:1046000003900EA802900DE036A0F9E753466046ED
:10461000009AFBF747FE84460398825C0298401E8E
:10462000029002705CEA0100F0D1029806A9081A13
:1046300000F1200A600702D524F4803400E001274D
:10464000574502DDA7EB0A0000E0002000EB0A015D
:10465000009005984144401A0590E00306D45B465B
:104660002146179A059800F0B6F90544002706E0A0
:1046700001A85A46C05D179990476D1C7F1C47459D
:10468000F6DBE0030CD55B462146179A059800F04F
:10469000A2F9054404E030205A46179990476D1C52
:1046A0000099481E00900029F5DC08E00298029964
:1046B0005A460078491C0291179990476D1CBAF12F
:1046C0000001AAF1010AF1DC65E1000009280100FE
:1046D0003031323334353637383961626364656678
:1046E000000000003031323334353637383941423A
:1046F000434445460000000000F05BF90544761C89
:10470000307800287FF4ECAD19B0284600F04EB99F
:10471000620700D4062709F1070222F0070CFCE823
:104720000223E14603F000485FEA080C02D00FF2D2
:10473000702C0DE05FEA045C02D50FF2682C07E0F4
:104740005FEAC47C02D00FF2602C01E0AFF2700C83
:104750004FF0FF3823F00043CDF850C065280CD04F
:1047600006DC452809D046281DD047283DD13DE02C
:10477000662818D067287ED138E00021112F01DB90
:10478000112000E0781CCDE9000106A90EA8FFF772
:10479000D9FCDDE90F010E9A03910021009207F187
:1047A000010A04914DE04FF000400097CDE901105F
:1047B00006A90EA8FFF7C6FCDDE90F0203920E9BC7
:1047C00011990022DDF80CA00093049211B9791C14
:1047D00000EB010AB7EB0A0004D4C0F1FF3007F187
:1047E000010A0490AAEB0700019044E0012F00DACF
:1047F00001270021112F01DD112000E03846CDE90D
:10480000000106A90EA8FFF79DFCDDE90F010E9A35
:104810000391002104910092BA4621070CD4039918
:10482000514500DA8A46BAF1010F05DD009AAAF176
:104830000101515C302908D0B84202DA10F1040FAE
:1048400006DA0121CDE9011015E0AAF10101E9E73D
:10485000002805DC049901440491AAEB000102E060
:10486000411C514500DD8A460499401A401C0190C4
:104870004FF000400290200704D40198504501DB1E
:10488000CDF8048000208DF84F0002980DF14F07FD
:10489000B0F1004F25D02B200E9002984FF0020867
:1048A00000280CDA404202902D200E9007E00A21E9
:1048B0000298FBF796FD3031029007F8011DB8F120
:1048C0000001A8F10108F2DC02980028EFD1791E5E
:1048D0000E980870307800F0200040F0450007F88E
:1048E000020D12A8C01B00F107081498007800B14F
:1048F000012000EB0A01019801EBE07105984144A9
:10490000401A401E0590E00306D45B462146179AE4
:10491000059800F060F805441498007818B15A46DC
:10492000179990476D1CE00324D55B462146179AE2
:10493000059800F050F805441CE00498002807DBB7
:10494000DDE90301884203DD0098405C179901E02E
:10495000179930205A469047049805F10105401CEC
:1049600004900198401E019004D12E205A461799B8
:1049700090476D1CBAF10001AAF1010ADDDC05E0E7
:1049800017F8010B5A46179990476D1CB8F10001B2
:10499000A8F10108F4DC5B462146179A0598ABE6BE
:1049A0002D0000002B0000002000000030BCBDE8FE
:1049B000C08F2DE9F041044600251E4617468804A5
:1049C00004D405E039462020B0476D1C641EF9D59B
:1049D0002846BDE8F0812DE9F041044600251E4639
:1049E0009046C80301D5302700E02027880404D56D
:1049F00005E041463846B0476D1C641EF9D528468F
:104A0000BDE8F0814A68002A06D00A68531C0B6092
:104A100010704868401E486070470FB4F0B587B00A
:104A20000C46054618216846FBF78DFC8DF80040C2
:104A300003AA02A9182317460E466C4601A802F0E5
:104A400055FB60B9DDE9010101EB410100EBC1005B
:104A500002991822491C02910EA9FBF75BFC18234E
:104A60003A463146201D02F041FB60B9DDE9010103
:104A700001EB410100EBC10002991822491C02918F
:104A800014A9FBF747FC182269462846FBF742FCAD
:104A900007B0F0BC5DF814FB2DE9F04114464FF06F
:104AA000FF3796B03A4601F0E9F8050052D000F021
:104AB000F8FF0028606804F1080626D0012849DBC9
:104AC000401E2168606000EB400001EBC00118222D
:104AD00008A8FBF71FFC18216846FBF734FC8DF88B
:104AE0000050182301A802A903AA02F0FFFA002827
:104AF0005FD1DDE9010101EB410100EBC100029949
:104B0000491C0291182208A951E0022822DB401E0C
:104B10002168606000EB400001EBC00118220FA883
:104B2000FBF7F8FBD4E90010401E606000EB40008A
:104B300001EBC001182208A8FBF7ECFB182168461E
:104B4000FBF701FC8DF80050172D07D19DF82000D0
:104B50001A2803D0384616B0BDE8F08103AA02A98E
:104B6000182390460D466F4601A802F0BFFA60B9BF
:104B7000DDE9010101EB410100EBC10002991822BE
:104B8000491C029108A9FBF7C5FB18234246294698
:104B9000381D02F0ABFA60B9DDE9010101EB41011A
:104BA00000EBC10002991822491C02910FA9FBF7E2
:104BB000B1FB18233246211D204602F097FA60B956
:104BC000D4E9001000EB400201EBC203401C60601E
:104BD000182269461846FBF79DFB0020BBE710B57D
:104BE00004462DED028B86B0B0EE408A182168464F
:104BF000FBF7A9FB19208DF800008DED018A182222
:104C000069462046FBF786FB06B0BDEC028B10BD63
:104C10002DE9F04104468CB00878207008780D46E4
:104C200004F10C0804F108071B2808D0192844D007
:104C30001A2847D0A86800283CDD002654E06868A0
:104C40006060E86800282DDD00260DE0D4E9021040
:104C500000EB400201EBC203401CE060182206A9F1
:104C60001846FBF757FB761CE868B0421ADDA868C7
:104C700006EB460100EBC10118226846FBF74AFB30
:104C8000182106A8FBF75FFB694606A8FFF7C0FFDF
:104C9000182304F110024146384602F027FA002892
:104CA000E1D1D3E76868C168002903D00120FBF790
:104CB00077FB60610CB0BDE8F08195ED010A84EDF1
:104CC000010AF7E768686060F4E700BFD4E9011003
:104CD00000EB400201EBC203401CA060182206A9B1
:104CE0001846FBF717FB761CA868B042E2DD68683F
:104CF00006EB460100EBC10118226846FBF70AFBF0
:104D0000182106A8FBF71FFB694606A8FFF780FFDE
:104D1000182342463946201D02F0E8F90028E2D166
:104D2000D4E700002DE9FF4F2DED028B0020CFB01E
:104D300080461690109011901E9012901F90209017
:104D40000A9082460B900C900D900E900F901A20B6
:104D500000259FEDFB8A419012A82D9020A82E904F
:104D6000DDE9510141AA00F0A6FE041E11D074DB5A
:104D700051988146204451905298001B529099F8C6
:104D800000002328ECD041998A061AD5012C0CD0BA
:104D900017E0B8F1000F7CD0182311A910A82D9AA4
:104DA00002F0A4F9002874D19BE321280ED02D280D
:104DB00002D05E2851D101E0E2A000E0E2A08146ED
:104DC000022499F800000A2802D009E0DFA0F6E7E3
:104DD000480605D521F0400001240FF274394190B6
:104DE000FBF794FA8346016899F80000095CC9074B
:104DF000B6D10691B8F100016ED0012C01D128285E
:104E00000ED00A461699539800F0A6FF060060D00F
:104E1000182311A910A82D9A02F068F9D0BB46E01A
:104E20000E980027002819DD002508E00A463046C4
:104E30001699FBF7A6FA08B901270FE06D1C0E982A
:104E4000A8420BDD0D9800EB051006683046FBF715
:104E500091FA41464045F1D1E8E74BE0B8F1010F46
:104E600003D116980078242807D037B942461699FE
:104E7000549800F0FFFD00283CD0464608231FA9A7
:104E80001EA8169D2E9A02F031F958B9DDE91E01CF
:104E900001E03CE31CE000EBC1011F98401C1F90A7
:104EA000C1E90056012500208046169016E03146E3
:104EB00013A800F091FFDDE9100101EB410100EBC7
:104EC000C10011991822491C119113A9FBF722FA6C
:104ED0000225002080461690012C03D199F800008D
:104EE000282804D0012DC7D0012C49D04CE0012D39
:104EF00001D07DB336E3974808231FA9D0E90045C8
:104F00001EA82E9A02F0F2F840B9DDE91E0100EB6E
:104F1000C1011F98401C1F90C1E90045142117A82A
:104F2000FBF711FA1F9817901198189014230CAAE8
:104F30000BA90AA802F0DAF8002820D1DDE90A015D
:104F400001EB810100EB81000B99491C0B911422AC
:104F500017A96EE2FFE77F4808231FA9D0E90245A1
:104F60001EA82E9A02F0C2F80028E6D1DDE91E0143
:104F700000EBC1011F98401C1F90C1E90045AEE243
:104F800099F80000292822D02146484600F0A0FECA
:104F9000F0EE408A18EE900AFEF7A1FC00287CD0C3
:104FA0004FF0FF322146484600F068FE002875D0D9
:104FB0004FF0FF322146484600F060FE0790002681
:104FC0001F98374600286ADC012C69D0E9E10B986C
:104FD000002809DDDDE90A0101EB81016FF0130210
:104FE00002EB8101445800E000246FF007050CE05B
:104FF000DDE91E10401E01EBC0011F90D1E9000148
:1050000010AAFFF749FD401C6CD01F98A04209DD93
:10501000DDE91E0105EBC10140580078282801D0C8
:105020007B28E5D11F980028EED01E99401E01EB89
:10503000C0011F90D1E90001012971D100787B28BE
:10504000FBD1DDE91E10401E1F9001EBC0001422B1
:10505000D0E90074DDE90A10401E0B9000EB8000DF
:1050600001EB800117A8FBF755F9189911988842B0
:105070001FDD18231BAA1AA919A802F037F8C0B916
:10508000DDE91010401E119000EB400001EBC00163
:10509000DDE9190202EB420203E052E113E2F4E11E
:1050A0006AE100EBC2001A9A521C1A921822FBF70E
:1050B00031F9012C02D13878242806D00E98002529
:1050C0004FF0FF3900284FDC0AE11A98012819989F
:1050D00002DB01781A2906D0FEF718FC002019908F
:1050E0001B901A903EE253990C681BE04168A14264
:1050F00017D1DDE91A57064610230FAA0EA90DA8ED
:10510000083401F0F3FF78B9DDE90D0100EB01117E
:105110000E98401C0E90C1E90046C1E9025703E019
:1051200088E06468002CE1D1182311A910A82D9AF9
:1051300001F0DCFF00287DD1B0EE480A0DE100004F
:10514000000000002D7500005E7500002175000054
:105150002C000000CC7D0008224639463046FBF783
:1051600010F900B9A9466D1C0E98A84209DD0D98EA
:1051700000EB051000680646FBF7FCF8A042F2D1F0
:10518000EAE7B9F1FF3F7CD00D99B0EE480A01EB98
:1051900009113BA8D1E90176FFF721FD3BAC0025C1
:1051A00044E06B1CFCA2032142A8FEF76DFB42A861
:1051B000FBF7E0F8024642A9539800F0CDFD014606
:1051C0002FA800F009FE199805EB450100EBC1017D
:1051D000182204A8FBF79EF80DF1C40999E80F0006
:1051E0008DE80F00DDE92F23172122A8FFF715FC1A
:1051F000B0EE480A49A8FFF7F2FC182249A904A812
:10520000FBF788F80DF1900999E80F008DE80F0081
:10521000DDE92223182143A8FFF7FFFB182243A949
:105220002046FBF777F8646818346D1C1A98A8427A
:10523000B7DC00E08CE0012534E0701EA84227DDD9
:10524000B0EE480A42A8FFF7CAFCB0EE480A22A80E
:10525000FFF7C5FC182242A904A8FBF75BF80DF183
:10526000900999E80F008DE80F00DDE9222318214D
:105270002FA8FFF7D2FB18222FA92046FBF74AF8E8
:1052800000E02DE005EB450107EBC101606804E09B
:1052900005EB450107EBC1012046FFF7B9FC646847
:1052A00018346D1CAE42C8DC182311A910A82D9A21
:1052B00001F01CFF60B9DDE9100101EB410100EBD9
:1052C000C10011991822491C11913BA9FBF722F842
:1052D0001998FEF71BFB002019901B901A9037E0DD
:1052E00022463946549800F0C5FB0446182121A8EF
:1052F000FBF729F81B2019AB8DF88400229493E862
:10530000070023AB83E80700E16829B10120FBF720
:1053100047F800287ED02690182311A910A82D9AAE
:1053200001F0E4FEA0B9DDE9100101EB410100EB61
:10533000C10011991822491C119121A9FAF7EAFF1D
:1053400006E0182311A910A82D9A01F0CFFE10B184
:1053500002200690C3E0B0EE680A01A8FFF73FFC08
:10536000DDE9100101EB410100EBC1001199491C7D
:105370001191182201A9E1E799F800002C2810D119
:105380001F9800280DDD02466FF007001E9900EB04
:10539000C2000144D1E90001012902D100787B2833
:1053A0000DD0314638464FF0FF3200F067FC90B325
:1053B000079D8346284600F074FB68B350E0DDE9A2
:1053C0001010401E119000EB400001EBC0011822AC
:1053D00021A8FAF79FFFDDE90A1000EB80006FF0CB
:1053E00003026FF0070402EB80020A4404EB80031F
:1053F0001944251F0A9B05EB80001844182301F06F
:1054000075FEE8BBDDE90A1000EB800005EB8002C9
:105410008B5802E0A6E042E00EE004EB80028958DF
:1054200001EB410003EBC0000A9B491C9950182274
:1054300021A9FAF76FFF52E0192D11D01A2D0FD0C4
:105440001B2D0DD065B1172D0AD0042D08D0182DB5
:1054500006D0524850F8252050F82B00824206DA38
:105460004E4850F8252050F82B00824217DD314677
:10547000384610AAFFF710FB401C73D01F9800E0BD
:105480002DE0401E1F9000281BDD02466FF0070034
:105490001E9900EBC2000844D0E9007694E54D4621
:1054A00008231FA91EA82E9A01F020FEB8B9DDE935
:1054B0001E0100EBC1011F98401C1F90C1E9005460
:1054C0000DE0002680E5002C4CDD99F80000DBF8AB
:1054D0000010085C202845D0A046CDF85890069DC5
:1054E0003EE442461699539800F036FC0146684661
:1054F00000F072FCDDE9101000EB400001EBC00091
:1055000011991822491C11916946FAF703FF12E01C
:105510001E99401E01EBC0011F90D1E90001012935
:1055200004D10278282A1DD0292A1BD010AAFFF7FF
:10553000B3FA401C16D01F980028E9DC182101207E
:10554000FAF72EFF5FEA000A0CD0119878B1401EDE
:105550001099119000EB400001EBC0011822504659
:10556000FAF7D8FE0E98002829DD00251CE0192145
:105570008AF80010F6E70024A74211DD04EB44008E
:1055800006EBC001182204A8FAF7C4FE04A800F034
:105590008DF8641CF0E700002425640068000020FA
:1055A0003046FEF7B3F96D1C0E98A84207DD0D9842
:1055B00000EB0510D0E90167002FF1DDDBE70D9866
:1055C000FEF7A4F9002411980D940F940E9400286E
:1055D00011DD00251198A8420DDD109805EB45015D
:1055E00000EBC101182235A8FAF794FE35A800F0A7
:1055F0005DF86D1CEEE71098FEF788F910940B9893
:105600001294119400282ADD002618E000252B981A
:10561000A8420DDD2A9805EB450100EBC1011822D7
:1056200035A8FAF777FE35A800F040F86D1CEEE7D4
:105630002A98FEF76BF92A942C94761C2B940B98DD
:10564000B0420CDD0A9806EB860100EB81011422C2
:1056500028A8FAF75FFE2B980028E9DDD6E70A981C
:10566000FEF754F90A940C940B941E98FEF74EF929
:105670004FB05046BDEC028B04B000F000B830BC17
:10568000BDE8C08F70B50C46050004D000F00EF8E0
:105690002846FEF73BF9002C07D0206803E0446859
:1056A000FEF734F920460028F9D170BD70B50446E4
:1056B0000078002586B01B2818D019283BD01A285E
:1056C00039D0A068002838DD0026A068B04234DD5B
:1056D000606806EB460100EBC10118226846FAF744
:1056E00019FE6846FFF7E2FF761CEEE7E068002847
:1056F00011DD0026E068B0420DDDA06806EB460132
:1057000000EBC10118226846FAF704FE6846FFF76D
:10571000CDFF761CEEE7A068FEF7F8F8A5602561DE
:10572000E5606169002906D06068826802B190472F
:105730006069FEF7EBF806B070BD6068FEF7E6F84A
:105740006560E560A560F6E770B504462DED028B57
:105750002078DFEDC68A1C2878D2DFE800F0770ECB
:1057600016262F4C405A6B788492A0B0C0D0E0FB34
:10577000F9F8F7F6F5F4F3F2F1F06068FFF7E4FFFB
:10578000B1EE400ABDEC028B70BD6068FFF7DCFF34
:10579000B5EEC00AF1EE10FA01D1012000E00020C0
:1057A00000EE100AB8EE400AECE76068FFF7CCFFA5
:1057B00001F0EEF9C04300EE100A06E1606818300F
:1057C000FFF7C2FFB0EE408A6068FFF7BDFFF0EE62
:1057D000480ABDEC028BBDE87040FEF71DB9606859
:1057E000FFF7B2FF6068B0EE408A1830FFF7ACFFF9
:1057F00028EE000AC6E76068FFF7A6FF6068B0EE13
:10580000408A1830FFF7A0FFC8EE000AB0EE600A29
:10581000B8E760681830FFF797FFB0EE408A60681D
:10582000FFF792FFF0EE480ABDEC028BBDE8704036
:10583000FEF79AB86068FFF787FF6068B0EE408AAD
:105840001830FFF781FF38EE000A9BE70BE1606834
:10585000FFF77AFF6068B0EE408A1830FFF774FFF8
:1058600038EE400A8EE76068FFF76EFF01F090F9AE
:10587000054660681830FFF767FF01F089F9854039
:10588000A1E06068FFF760FF01F082F905466068FB
:105890001830FFF759FF01F07BF9054193E060688C
:1058A000FFF752FF6068B0EE408A1830FFF74CFFF8
:1058B000B4EEC08AF1EE10FABFF471AF6DE7606824
:1058C000FFF742FF6068B0EE408A1830FFF73CFFF8
:1058D000B4EEC08AF1EE10FA3FF661AF5DE76068A2
:1058E000FFF732FF6068B0EE408A1830FFF72CFFF8
:1058F000B4EEC08AF1EE10FA7FF751AF4DE7606861
:10590000FFF722FF6068B0EE408A1830FFF71CFFF7
:10591000B4EEC08AF1EE10FAFFF641AF3DE76068E1
:10592000FFF712FF6068B0EE408A1830FFF70CFFF7
:10593000B4EE408AF1EE10FA7FF431AF2DE788E043
:1059400083E07FE077E06AE04BE041E02EE01FE09B
:1059500010E0FFE76068FFF7F7FE6068B0EE408A8E
:105960001830FFF7F1FEB4EE408AF1EE10FA3FF482
:1059700016AF12E76068FFF7E7FE01F009F9054688
:1059800060681830FFF7E0FE01F002F905401AE008
:105990006068FFF7D9FE01F0FBF805466068183033
:1059A000FFF7D2FE01F0F4F805430CE06068FFF762
:1059B000CBFE01F0EDF8054660681830FFF7C4FE35
:1059C00001F0E6F8454000EE105AB8EEC00AD9E6FC
:1059D0006068FFF7B9FEB5EEC00AF1EE10FA0FD11C
:1059E00017E06068FFF7B0FEB0EE408AB5EEC08AFF
:1059F000F1EE10FA04D018EE100AFDF770FF58B15E
:105A000060681830FFF7A0FEB5EEC00AF1EE10FA9C
:105A1000DDD1B0EE680AB5E6B0EE480AB2E66068DD
:105A20001830FFF791FE606801781A29CFD14068DD
:105A300080ED000AA6E66068FFF786FE606800F168
:105A4000180485E694ED010A9CE6606890ED000A72
:105A500098E66068626904F108014368BDEC028B56
:105A6000BDE8704018479FED020A8BE60000000079
:105A70000000C07F70B515460E4604460BE000BF1F
:105A8000FAF778FCA84205D12A4631462068FAF791
:105A900078FC20B1103420680028F1D170BD204678
:105AA00070BD012805D0022803D0032801D00020B2
:105AB0007047012070472DE9F84315460F008046D6
:105AC0004FF000040FD098F800608DF80060232E8E
:105AD0000DD00A2E13D0FAF719FC01688146885DB3
